{
  "_format": "hh-sol-artifact-1",
  "contractName": "Upload",
  "sourceName": "contracts/Upload.sol",
  "abi": [
    {
      "inputs": [
        {
          "internalType": "uint256",
          "name": "_id",
          "type": "uint256"
        },
        {
          "internalType": "uint256",
          "name": "amt",
          "type": "uint256"
        }
      ],
      "name": "acceptRequest",
      "outputs": [],
      "stateMutability": "nonpayable",
      "type": "function"
    },
    {
      "inputs": [
        {
          "internalType": "address",
          "name": "_user",
          "type": "address"
        },
        {
          "internalType": "string",
          "name": "url",
          "type": "string"
        }
      ],
      "name": "add",
      "outputs": [],
      "stateMutability": "nonpayable",
      "type": "function"
    },
    {
      "inputs": [
        {
          "internalType": "uint256",
          "name": "_id",
          "type": "uint256"
        },
        {
          "internalType": "string",
          "name": "_name",
          "type": "string"
        },
        {
          "internalType": "uint256",
          "name": "_price",
          "type": "uint256"
        },
        {
          "internalType": "string",
          "name": "_pic",
          "type": "string"
        },
        {
          "internalType": "uint256",
          "name": "_wdrive",
          "type": "uint256"
        }
      ],
      "name": "addVehicle",
      "outputs": [],
      "stateMutability": "nonpayable",
      "type": "function"
    },
    {
      "inputs": [
        {
          "internalType": "address",
          "name": "user",
          "type": "address"
        }
      ],
      "name": "allow",
      "outputs": [],
      "stateMutability": "nonpayable",
      "type": "function"
    },
    {
      "inputs": [
        {
          "internalType": "address",
          "name": "user",
          "type": "address"
        }
      ],
      "name": "disallow",
      "outputs": [],
      "stateMutability": "nonpayable",
      "type": "function"
    },
    {
      "inputs": [
        {
          "internalType": "address",
          "name": "_user",
          "type": "address"
        }
      ],
      "name": "display",
      "outputs": [
        {
          "internalType": "string[]",
          "name": "",
          "type": "string[]"
        }
      ],
      "stateMutability": "view",
      "type": "function"
    },
    {
      "inputs": [],
      "name": "getBalance",
      "outputs": [
        {
          "internalType": "uint256",
          "name": "",
          "type": "uint256"
        }
      ],
      "stateMutability": "view",
      "type": "function"
    },
    {
      "inputs": [
        {
          "internalType": "uint256",
          "name": "",
          "type": "uint256"
        }
      ],
      "name": "onSale",
      "outputs": [
        {
          "internalType": "uint256",
          "name": "id",
          "type": "uint256"
        },
        {
          "internalType": "string",
          "name": "name",
          "type": "string"
        },
        {
          "internalType": "uint256",
          "name": "price",
          "type": "uint256"
        },
        {
          "internalType": "string",
          "name": "pic",
          "type": "string"
        },
        {
          "internalType": "uint256",
          "name": "wdrive",
          "type": "uint256"
        },
        {
          "internalType": "bool",
          "name": "avail",
          "type": "bool"
        },
        {
          "internalType": "address",
          "name": "beingSoldBy",
          "type": "address"
        }
      ],
      "stateMutability": "view",
      "type": "function"
    },
    {
      "inputs": [
        {
          "internalType": "uint256",
          "name": "_id",
          "type": "uint256"
        },
        {
          "internalType": "uint256",
          "name": "cost",
          "type": "uint256"
        }
      ],
      "name": "raiseRequest",
      "outputs": [],
      "stateMutability": "payable",
      "type": "function"
    },
    {
      "inputs": [],
      "name": "shareAccess",
      "outputs": [
        {
          "components": [
            {
              "internalType": "address",
              "name": "user",
              "type": "address"
            },
            {
              "internalType": "bool",
              "name": "access",
              "type": "bool"
            }
          ],
          "internalType": "struct Upload.Access[]",
          "name": "",
          "type": "tuple[]"
        }
      ],
      "stateMutability": "view",
      "type": "function"
    },
    {
      "inputs": [
        {
          "internalType": "uint256",
          "name": "_id",
          "type": "uint256"
        }
      ],
      "name": "viewHistory",
      "outputs": [
        {
          "internalType": "address[]",
          "name": "",
          "type": "address[]"
        }
      ],
      "stateMutability": "view",
      "type": "function"
    },
    {
      "inputs": [],
      "name": "viewIncoming",
      "outputs": [
        {
          "components": [
            {
              "internalType": "uint256",
              "name": "id",
              "type": "uint256"
            },
            {
              "internalType": "address",
              "name": "buyerName",
              "type": "address"
            },
            {
              "internalType": "uint256",
              "name": "price",
              "type": "uint256"
            },
            {
              "internalType": "bool",
              "name": "accepted",
              "type": "bool"
            }
          ],
          "internalType": "struct Upload.Pair[]",
          "name": "",
          "type": "tuple[]"
        }
      ],
      "stateMutability": "view",
      "type": "function"
    },
    {
      "inputs": [],
      "name": "viewVehicles",
      "outputs": [
        {
          "components": [
            {
              "internalType": "uint256",
              "name": "id",
              "type": "uint256"
            },
            {
              "internalType": "string",
              "name": "name",
              "type": "string"
            },
            {
              "internalType": "uint256",
              "name": "price",
              "type": "uint256"
            },
            {
              "internalType": "string",
              "name": "pic",
              "type": "string"
            },
            {
              "internalType": "uint256",
              "name": "wdrive",
              "type": "uint256"
            },
            {
              "internalType": "bool",
              "name": "avail",
              "type": "bool"
            },
            {
              "internalType": "address",
              "name": "beingSoldBy",
              "type": "address"
            }
          ],
          "internalType": "struct Upload.Vehicle[]",
          "name": "",
          "type": "tuple[]"
        }
      ],
      "stateMutability": "view",
      "type": "function"
    }
  ],
  "bytecode": "0x608060405234801561001057600080fd5b50612828806100206000396000f3fe6080604052600436106100c25760003560e01c8063b43a76f11161007f578063de67388811610059578063de6738881461025f578063e0dd8cfe14610288578063eb39113f146102b3578063ff9913e8146102f0576100c2565b8063b43a76f1146101d5578063bc8bef8114610218578063cdae6ec514610243576100c2565b806312065fe0146100c757806336d6da55146100f25780638bbc94f61461011b57806397ed879a14610146578063a9ed9cb81461016f578063ad2b46a814610198575b600080fd5b3480156100d357600080fd5b506100dc610319565b6040516100e99190611a62565b60405180910390f35b3480156100fe57600080fd5b5061011960048036038101906101149190611c35565b610334565b005b34801561012757600080fd5b506101306103b1565b60405161013d9190611dce565b60405180910390f35b34801561015257600080fd5b5061016d60048036038101906101689190611e1c565b6104d2565b005b34801561017b57600080fd5b5061019660048036038101906101919190611ecf565b610685565b005b3480156101a457600080fd5b506101bf60048036038101906101ba9190611efc565b6108a8565b6040516101cc9190611fd8565b60405180910390f35b3480156101e157600080fd5b506101fc60048036038101906101f79190611efc565b610949565b60405161020f97969594939291906120a0565b60405180910390f35b34801561022457600080fd5b5061022d610ad8565b60405161023a91906121fb565b60405180910390f35b61025d6004803603810190610258919061221d565b610be1565b005b34801561026b57600080fd5b506102866004803603810190610281919061221d565b610d9a565b005b34801561029457600080fd5b5061029d611135565b6040516102aa919061240c565b60405180910390f35b3480156102bf57600080fd5b506102da60048036038101906102d59190611ecf565b611347565b6040516102e791906124f0565b60405180910390f35b3480156102fc57600080fd5b5061031760048036038101906103129190611ecf565b61155e565b005b6000670de0b6b3a76400004761032f9190612570565b905090565b600360008373ffffffffffffffffffffffffffffffffffffffff1673ffffffffffffffffffffffffffffffffffffffff168152602001908152602001600020819080600181540180825580915050600190039060005260206000200160009091909190915090805190602001906103ac9291906119a6565b505050565b6060600160003373ffffffffffffffffffffffffffffffffffffffff1673ffffffffffffffffffffffffffffffffffffffff168152602001908152602001600020805480602002602001604051908101604052809291908181526020016000905b828210156104c95783829060005260206000209060040201604051806080016040529081600082015481526020016001820160009054906101000a900473ffffffffffffffffffffffffffffffffffffffff1673ffffffffffffffffffffffffffffffffffffffff1673ffffffffffffffffffffffffffffffffffffffff168152602001600282015481526020016003820160009054906101000a900460ff16151515158152505081526020019060010190610412565b50505050905090565b60006040518060e001604052808781526020018681526020018581526020018481526020018381526020016001151581526020013373ffffffffffffffffffffffffffffffffffffffff16815250908060018154018082558091505060019003906000526020600020906006020160009091909190915060008201518160000155602082015181600101908051906020019061056f9291906119a6565b506040820151816002015560608201518160030190805190602001906105969291906119a6565b506080820151816004015560a08201518160050160006101000a81548160ff02191690831515021790555060c08201518160050160016101000a81548173ffffffffffffffffffffffffffffffffffffffff021916908373ffffffffffffffffffffffffffffffffffffffff160217905550505060026000868152602001908152602001600020339080600181540180825580915050600190039060005260206000200160009091909190916101000a81548173ffffffffffffffffffffffffffffffffffffffff021916908373ffffffffffffffffffffffffffffffffffffffff1602179055505050505050565b6000600460003373ffffffffffffffffffffffffffffffffffffffff1673ffffffffffffffffffffffffffffffffffffffff16815260200190815260200160002060008373ffffffffffffffffffffffffffffffffffffffff1673ffffffffffffffffffffffffffffffffffffffff16815260200190815260200160002060006101000a81548160ff02191690831515021790555060005b600560003373ffffffffffffffffffffffffffffffffffffffff1673ffffffffffffffffffffffffffffffffffffffff168152602001908152602001600020805490508110156108a4578173ffffffffffffffffffffffffffffffffffffffff16600560003373ffffffffffffffffffffffffffffffffffffffff1673ffffffffffffffffffffffffffffffffffffffff16815260200190815260200160002082815481106107cf576107ce6125a1565b5b9060005260206000200160000160009054906101000a900473ffffffffffffffffffffffffffffffffffffffff1673ffffffffffffffffffffffffffffffffffffffff161415610891576000600560003373ffffffffffffffffffffffffffffffffffffffff1673ffffffffffffffffffffffffffffffffffffffff168152602001908152602001600020828154811061086c5761086b6125a1565b5b9060005260206000200160000160146101000a81548160ff0219169083151502179055505b808061089c906125d0565b91505061071d565b5050565b60606002600083815260200190815260200160002080548060200260200160405190810160405280929190818152602001828054801561093d57602002820191906000526020600020905b8160009054906101000a900473ffffffffffffffffffffffffffffffffffffffff1673ffffffffffffffffffffffffffffffffffffffff16815260200190600101908083116108f3575b50505050509050919050565b6000818154811061095957600080fd5b906000526020600020906006020160009150905080600001549080600101805461098290612648565b80601f01602080910402602001604051908101604052809291908181526020018280546109ae90612648565b80156109fb5780601f106109d0576101008083540402835291602001916109fb565b820191906000526020600020905b8154815290600101906020018083116109de57829003601f168201915b505050505090806002015490806003018054610a1690612648565b80601f0160208091040260200160405190810160405280929190818152602001828054610a4290612648565b8015610a8f5780601f10610a6457610100808354040283529160200191610a8f565b820191906000526020600020905b815481529060010190602001808311610a7257829003601f168201915b5050505050908060040154908060050160009054906101000a900460ff16908060050160019054906101000a900473ffffffffffffffffffffffffffffffffffffffff16905087565b6060600560003373ffffffffffffffffffffffffffffffffffffffff1673ffffffffffffffffffffffffffffffffffffffff168152602001908152602001600020805480602002602001604051908101604052809291908181526020016000905b82821015610bd8578382906000526020600020016040518060400160405290816000820160009054906101000a900473ffffffffffffffffffffffffffffffffffffffff1673ffffffffffffffffffffffffffffffffffffffff1673ffffffffffffffffffffffffffffffffffffffff1681526020016000820160149054906101000a900460ff16151515158152505081526020019060010190610b39565b50505050905090565b60005b600080549050811015610d95578260008281548110610c0657610c056125a1565b5b9060005260206000209060060201600001541415610d825760016000808381548110610c3557610c346125a1565b5b906000526020600020906006020160050160019054906101000a900473ffffffffffffffffffffffffffffffffffffffff1673ffffffffffffffffffffffffffffffffffffffff1673ffffffffffffffffffffffffffffffffffffffff16815260200190815260200160002060405180608001604052808581526020013373ffffffffffffffffffffffffffffffffffffffff1681526020018481526020016000151581525090806001815401808255809150506001900390600052602060002090600402016000909190919091506000820151816000015560208201518160010160006101000a81548173ffffffffffffffffffffffffffffffffffffffff021916908373ffffffffffffffffffffffffffffffffffffffff1602179055506040820151816002015560608201518160030160006101000a81548160ff02191690831515021790555050505b8080610d8d906125d0565b915050610be4565b505050565b670de0b6b3a764000081610dae919061267a565b905060003373ffffffffffffffffffffffffffffffffffffffff1682604051610dd690612705565b60006040518083038185875af1925050503d8060008114610e13576040519150601f19603f3d011682016040523d82523d6000602084013e610e18565b606091505b5050905080610e5c576040517f08c379a0000000000000000000000000000000000000000000000000000000008152600401610e5390612766565b60405180910390fd5b60005b600080549050811015610eea578360008281548110610e8157610e806125a1565b5b9060005260206000209060060201600001541415610ed7576000808281548110610eae57610ead6125a1565b5b906000526020600020906006020160050160006101000a81548160ff0219169083151502179055505b8080610ee2906125d0565b915050610e5f565b50600080600090505b600160003373ffffffffffffffffffffffffffffffffffffffff1673ffffffffffffffffffffffffffffffffffffffff168152602001908152602001600020805490508110156110ba5784600160003373ffffffffffffffffffffffffffffffffffffffff1673ffffffffffffffffffffffffffffffffffffffff1681526020019081526020016000208281548110610f8f57610f8e6125a1565b5b90600052602060002090600402016000015414156110a757600160003373ffffffffffffffffffffffffffffffffffffffff1673ffffffffffffffffffffffffffffffffffffffff1681526020019081526020016000208181548110610ff857610ff76125a1565b5b906000526020600020906004020160010160009054906101000a900473ffffffffffffffffffffffffffffffffffffffff16915060018060003373ffffffffffffffffffffffffffffffffffffffff1673ffffffffffffffffffffffffffffffffffffffff168152602001908152602001600020828154811061107e5761107d6125a1565b5b906000526020600020906004020160030160006101000a81548160ff0219169083151502179055505b80806110b2906125d0565b915050610ef3565b5060026000858152602001908152602001600020819080600181540180825580915050600190039060005260206000200160009091909190916101000a81548173ffffffffffffffffffffffffffffffffffffffff021916908373ffffffffffffffffffffffffffffffffffffffff16021790555050505050565b60606000805480602002602001604051908101604052809291908181526020016000905b8282101561133e57838290600052602060002090600602016040518060e00160405290816000820154815260200160018201805461119690612648565b80601f01602080910402602001604051908101604052809291908181526020018280546111c290612648565b801561120f5780601f106111e45761010080835404028352916020019161120f565b820191906000526020600020905b8154815290600101906020018083116111f257829003601f168201915b505050505081526020016002820154815260200160038201805461123290612648565b80601f016020809104026020016040519081016040528092919081815260200182805461125e90612648565b80156112ab5780601f10611280576101008083540402835291602001916112ab565b820191906000526020600020905b81548152906001019060200180831161128e57829003601f168201915b50505050508152602001600482015481526020016005820160009054906101000a900460ff161515151581526020016005820160019054906101000a900473ffffffffffffffffffffffffffffffffffffffff1673ffffffffffffffffffffffffffffffffffffffff1673ffffffffffffffffffffffffffffffffffffffff168152505081526020019060010190611159565b50505050905090565b60603373ffffffffffffffffffffffffffffffffffffffff168273ffffffffffffffffffffffffffffffffffffffff1614806114095750600460008373ffffffffffffffffffffffffffffffffffffffff1673ffffffffffffffffffffffffffffffffffffffff16815260200190815260200160002060003373ffffffffffffffffffffffffffffffffffffffff1673ffffffffffffffffffffffffffffffffffffffff16815260200190815260200160002060009054906101000a900460ff165b611448576040517f08c379a000000000000000000000000000000000000000000000000000000000815260040161143f906127d2565b60405180910390fd5b600360008373ffffffffffffffffffffffffffffffffffffffff1673ffffffffffffffffffffffffffffffffffffffff168152602001908152602001600020805480602002602001604051908101604052809291908181526020016000905b828210156115535783829060005260206000200180546114c690612648565b80601f01602080910402602001604051908101604052809291908181526020018280546114f290612648565b801561153f5780601f106115145761010080835404028352916020019161153f565b820191906000526020600020905b81548152906001019060200180831161152257829003601f168201915b5050505050815260200190600101906114a7565b505050509050919050565b6001600460003373ffffffffffffffffffffffffffffffffffffffff1673ffffffffffffffffffffffffffffffffffffffff16815260200190815260200160002060008373ffffffffffffffffffffffffffffffffffffffff1673ffffffffffffffffffffffffffffffffffffffff16815260200190815260200160002060006101000a81548160ff021916908315150217905550600660003373ffffffffffffffffffffffffffffffffffffffff1673ffffffffffffffffffffffffffffffffffffffff16815260200190815260200160002060008273ffffffffffffffffffffffffffffffffffffffff1673ffffffffffffffffffffffffffffffffffffffff16815260200190815260200160002060009054906101000a900460ff16156118125760005b600560003373ffffffffffffffffffffffffffffffffffffffff1673ffffffffffffffffffffffffffffffffffffffff1681526020019081526020016000208054905081101561180c578173ffffffffffffffffffffffffffffffffffffffff16600560003373ffffffffffffffffffffffffffffffffffffffff1673ffffffffffffffffffffffffffffffffffffffff1681526020019081526020016000208281548110611737576117366125a1565b5b9060005260206000200160000160009054906101000a900473ffffffffffffffffffffffffffffffffffffffff1673ffffffffffffffffffffffffffffffffffffffff1614156117f9576001600560003373ffffffffffffffffffffffffffffffffffffffff1673ffffffffffffffffffffffffffffffffffffffff16815260200190815260200160002082815481106117d4576117d36125a1565b5b9060005260206000200160000160146101000a81548160ff0219169083151502179055505b8080611804906125d0565b915050611685565b506119a3565b600560003373ffffffffffffffffffffffffffffffffffffffff1673ffffffffffffffffffffffffffffffffffffffff16815260200190815260200160002060405180604001604052808373ffffffffffffffffffffffffffffffffffffffff168152602001600115158152509080600181540180825580915050600190039060005260206000200160009091909190915060008201518160000160006101000a81548173ffffffffffffffffffffffffffffffffffffffff021916908373ffffffffffffffffffffffffffffffffffffffff16021790555060208201518160000160146101000a81548160ff02191690831515021790555050506001600660003373ffffffffffffffffffffffffffffffffffffffff1673ffffffffffffffffffffffffffffffffffffffff16815260200190815260200160002060008373ffffffffffffffffffffffffffffffffffffffff1673ffffffffffffffffffffffffffffffffffffffff16815260200190815260200160002060006101000a81548160ff0219169083151502179055505b50565b8280546119b290612648565b90600052602060002090601f0160209004810192826119d45760008555611a1b565b82601f106119ed57805160ff1916838001178555611a1b565b82800160010185558215611a1b579182015b82811115611a1a5782518255916020019190600101906119ff565b5b509050611a289190611a2c565b5090565b5b80821115611a45576000816000905550600101611a2d565b5090565b6000819050919050565b611a5c81611a49565b82525050565b6000602082019050611a776000830184611a53565b92915050565b6000604051905090565b600080fd5b600080fd5b600073ffffffffffffffffffffffffffffffffffffffff82169050919050565b6000611abc82611a91565b9050919050565b611acc81611ab1565b8114611ad757600080fd5b50565b600081359050611ae981611ac3565b92915050565b600080fd5b600080fd5b6000601f19601f8301169050919050565b7f4e487b7100000000000000000000000000000000000000000000000000000000600052604160045260246000fd5b611b4282611af9565b810181811067ffffffffffffffff82111715611b6157611b60611b0a565b5b80604052505050565b6000611b74611a7d565b9050611b808282611b39565b919050565b600067ffffffffffffffff821115611ba057611b9f611b0a565b5b611ba982611af9565b9050602081019050919050565b82818337600083830152505050565b6000611bd8611bd384611b85565b611b6a565b905082815260208101848484011115611bf457611bf3611af4565b5b611bff848285611bb6565b509392505050565b600082601f830112611c1c57611c1b611aef565b5b8135611c2c848260208601611bc5565b91505092915050565b60008060408385031215611c4c57611c4b611a87565b5b6000611c5a85828601611ada565b925050602083013567ffffffffffffffff811115611c7b57611c7a611a8c565b5b611c8785828601611c07565b9150509250929050565b600081519050919050565b600082825260208201905092915050565b6000819050602082019050919050565b611cc681611a49565b82525050565b611cd581611ab1565b82525050565b60008115159050919050565b611cf081611cdb565b82525050565b608082016000820151611d0c6000850182611cbd565b506020820151611d1f6020850182611ccc565b506040820151611d326040850182611cbd565b506060820151611d456060850182611ce7565b50505050565b6000611d578383611cf6565b60808301905092915050565b6000602082019050919050565b6000611d7b82611c91565b611d858185611c9c565b9350611d9083611cad565b8060005b83811015611dc1578151611da88882611d4b565b9750611db383611d63565b925050600181019050611d94565b5085935050505092915050565b60006020820190508181036000830152611de88184611d70565b905092915050565b611df981611a49565b8114611e0457600080fd5b50565b600081359050611e1681611df0565b92915050565b600080600080600060a08688031215611e3857611e37611a87565b5b6000611e4688828901611e07565b955050602086013567ffffffffffffffff811115611e6757611e66611a8c565b5b611e7388828901611c07565b9450506040611e8488828901611e07565b935050606086013567ffffffffffffffff811115611ea557611ea4611a8c565b5b611eb188828901611c07565b9250506080611ec288828901611e07565b9150509295509295909350565b600060208284031215611ee557611ee4611a87565b5b6000611ef384828501611ada565b91505092915050565b600060208284031215611f1257611f11611a87565b5b6000611f2084828501611e07565b91505092915050565b600081519050919050565b600082825260208201905092915050565b6000819050602082019050919050565b6000611f618383611ccc565b60208301905092915050565b6000602082019050919050565b6000611f8582611f29565b611f8f8185611f34565b9350611f9a83611f45565b8060005b83811015611fcb578151611fb28882611f55565b9750611fbd83611f6d565b925050600181019050611f9e565b5085935050505092915050565b60006020820190508181036000830152611ff28184611f7a565b905092915050565b600081519050919050565b600082825260208201905092915050565b60005b83811015612034578082015181840152602081019050612019565b83811115612043576000848401525b50505050565b600061205482611ffa565b61205e8185612005565b935061206e818560208601612016565b61207781611af9565b840191505092915050565b61208b81611cdb565b82525050565b61209a81611ab1565b82525050565b600060e0820190506120b5600083018a611a53565b81810360208301526120c78189612049565b90506120d66040830188611a53565b81810360608301526120e88187612049565b90506120f76080830186611a53565b61210460a0830185612082565b61211160c0830184612091565b98975050505050505050565b600081519050919050565b600082825260208201905092915050565b6000819050602082019050919050565b60408201600082015161215f6000850182611ccc565b5060208201516121726020850182611ce7565b50505050565b60006121848383612149565b60408301905092915050565b6000602082019050919050565b60006121a88261211d565b6121b28185612128565b93506121bd83612139565b8060005b838110156121ee5781516121d58882612178565b97506121e083612190565b9250506001810190506121c1565b5085935050505092915050565b60006020820190508181036000830152612215818461219d565b905092915050565b6000806040838503121561223457612233611a87565b5b600061224285828601611e07565b925050602061225385828601611e07565b9150509250929050565b600081519050919050565b600082825260208201905092915050565b6000819050602082019050919050565b600082825260208201905092915050565b60006122a582611ffa565b6122af8185612289565b93506122bf818560208601612016565b6122c881611af9565b840191505092915050565b600060e0830160008301516122eb6000860182611cbd565b5060208301518482036020860152612303828261229a565b91505060408301516123186040860182611cbd565b5060608301518482036060860152612330828261229a565b91505060808301516123456080860182611cbd565b5060a083015161235860a0860182611ce7565b5060c083015161236b60c0860182611ccc565b508091505092915050565b600061238283836122d3565b905092915050565b6000602082019050919050565b60006123a28261225d565b6123ac8185612268565b9350836020820285016123be85612279565b8060005b858110156123fa57848403895281516123db8582612376565b94506123e68361238a565b925060208a019950506001810190506123c2565b50829750879550505050505092915050565b600060208201905081810360008301526124268184612397565b905092915050565b600081519050919050565b600082825260208201905092915050565b6000819050602082019050919050565b6000612466838361229a565b905092915050565b6000602082019050919050565b60006124868261242e565b6124908185612439565b9350836020820285016124a28561244a565b8060005b858110156124de57848403895281516124bf858261245a565b94506124ca8361246e565b925060208a019950506001810190506124a6565b50829750879550505050505092915050565b6000602082019050818103600083015261250a818461247b565b905092915050565b7f4e487b7100000000000000000000000000000000000000000000000000000000600052601260045260246000fd5b7f4e487b7100000000000000000000000000000000000000000000000000000000600052601160045260246000fd5b600061257b82611a49565b915061258683611a49565b92508261259657612595612512565b5b828204905092915050565b7f4e487b7100000000000000000000000000000000000000000000000000000000600052603260045260246000fd5b60006125db82611a49565b91507fffffffffffffffffffffffffffffffffffffffffffffffffffffffffffffffff82141561260e5761260d612541565b5b600182019050919050565b7f4e487b7100000000000000000000000000000000000000000000000000000000600052602260045260246000fd5b6000600282049050600182168061266057607f821691505b6020821081141561267457612673612619565b5b50919050565b600061268582611a49565b915061269083611a49565b9250817fffffffffffffffffffffffffffffffffffffffffffffffffffffffffffffffff04831182151516156126c9576126c8612541565b5b828202905092915050565b600081905092915050565b50565b60006126ef6000836126d4565b91506126fa826126df565b600082019050919050565b6000612710826126e2565b9150819050919050565b7f4661696c656420746f207472616e736665720000000000000000000000000000600082015250565b6000612750601283612005565b915061275b8261271a565b602082019050919050565b6000602082019050818103600083015261277f81612743565b9050919050565b7f596f7520646f6e27742068617665206163636573730000000000000000000000600082015250565b60006127bc601583612005565b91506127c782612786565b602082019050919050565b600060208201905081810360008301526127eb816127af565b905091905056fea264697066735822122038c437af398d42335e25a66dd7218d27595744f0a33d00f5ab419f1dba982fe964736f6c63430008090033",
  "linkReferences": {},
  "deployedLinkReferences": {}
}